S01B00006B687573733030315F6C6162335F70617274352E737265633E
S11300000C943B000C9458000C9458000C94580029
S11300100C9458000C9458000C9458000C945800FC
S11300200C9458000C9458000C9458000C945800EC
S11300300C9458000C9458000C9458000C945800DC
S11300400C9458000C9458000C9458000C945800CC
S11300500C94580067006B007A00BD00D700E600DE
S1130060F100FF000D01350138013B013E01410162
S1130070440149014C0111241FBECFE5D8E0DEBF85
S1130080CDBF10E0A0E6B0E0EAEBF2E002C00590DC
S11300900D92A436B107D9F720E0A4E6B0E001C080
S11300A01D92A936B207E1F70E944F010C945B013F
S11300B00C940000E09168008E2F90E08930910547
S11300C008F0D0C0FC01E65DFF4F0C94550181E0BF
S11300D080936800CAC089B38111C7C082E080934D
S11300E068001092670010926600109265001092EA
S11300F06400BEC039B38091660090916700FC0132
S1130100E05AFF4F2081321309C0CF9907C08430D1
S1130110910520F483E080936800ADC0843091059C
S113012079F480916400909165008130910521F407
S113013081E08093680099C086E080936800A4C041
S1130140CF9B04C081E0809368008FC089B32817D7
S113015009F48EC089B3882309F48AC080916400AD
S1130160909165008130910521F486E080936800C8
S11301708BC081E08093680078C089B381110DC081
S113018082E08093680080916600909167000196F8
S113019090936700809366006BC089B3853008F440
S11301A06AC0C89B68C081E0809368005EC089B360
S11301B0811106C0CF9904C086E08093680064C0B2
S11301C089B3823009F05AC089B358C089B3811108
S11301D006C0CF9904C086E08093680055C089B3F7
S11301E050C0109267001092660081E090E09093F6
S11301F065008093640082E08093680039C089B30D
S1130200811106C0CF9904C088E08093680044C07F
S113021089B38430F1F589B33CC089B3813019F0D6
S113022089B3803821F486E0809368002DC089B3B7
S1130230823089F481E08093680018BAE091680004
S11302408E2F90E0FC013197E830F10538F5ED5C34
S1130250FF4F0C94550189B38430F1F485E0809309
S113026068000FC081E08093680018BA15BA089539
S113027081E085BB089582E085BB089583E085BB5A
S1130280089587E085BB089584E085BB81E088BB41
S1130290089585E085BB089586E085BB0895109296
S11302A0680018BA0E945A00FDCFEE0FFF1F059098
S10D02B0F491E02D0994F894FFCFB7
S10702BA0401020134
S9030000FC
