:1000000045C0000060C000005EC000005CC0000091
:100010005AC0000058C0000056C0000054C0000084
:1000200052C0000050C000004EC000004CC0000094
:100030004AC000006DC0000046C0000044C000007F
:1000400042C0000040C000003EC000003CC00000B4
:100050003AC0000038C0000036C0000034C00000C4
:1000600032C0000030C000002EC000002CC00000D4
:100070002AC0000028C0000026C0000024C00000E4
:1000800022C0000020C000001EC0000011241FBEBE
:10009000CFEFD0E4DEBFCDBF11E0A0E0B1E0E2EDF4
:1000A000F7E000E00BBF02C007900D92A23DB10740
:1000B000D9F721E0A2EDB1E001C01D92A13EB20747
:1000C000E1F7B9D184C39CCF8BE0809381008DE7A9
:1000D00090E0909389008093880082E080936F0085
:1000E000109285001092840080910001909101018E
:1000F000A0910201B09103018093D6019093D701A2
:10010000A093D801B093D9018FB780688FBF0895AD
:100110001F920F920FB60F9211248F939F93AF935C
:10012000BF938091D6019091D701A091D801B09151
:10013000D9010197A109B1098093D6019093D70104
:10014000A093D801B093D901892B8A2B8B2B99F4DA
:1001500081E08093DA018091000190910101A091EA
:100160000201B09103018093D6019093D701A0932F
:10017000D801B093D901BF91AF919F918F910F900A
:100180000FBE0F901F9018956093000170930101AE
:1001900080930201909303016093D6017093D7017D
:1001A0008093D8019093D9010895CF92DF92EF9276
:1001B000FF926B017C019B01AC016091D2017091B7
:1001C000D3018091D4019091D5014BD1882309F4BA
:1001D00052C020E030E0A901C701B60142D181112F
:1001E00006C0E1E9F0E080818870808305C0E1E924
:1001F000F0E080818360808328E539E344E75FE3B2
:10020000C701B6012ED188233CF48FEF9FEF909366
:1002100099008093980023C020E034E244EF56E434
:10022000C701B6016DD218162CF4109299001092E5
:10023000980015C020E030E040E053E4C701B6016B
:1002400063D29B01AC0160E074E284EF9AE40DD1CB
:1002500074D1615071097093990060939800109265
:10026000950010929400C092D201D092D301E092F6
:10027000D401F092D501FF90EF90DF90CF900895D8
:1002800080E4809390008BE08093910060E070E0C8
:10029000CB018BCF0895CF93DF9386B191E0282FC8
:1002A000217080FD90E09093DF018091E001823029
:1002B000D9F028F4882351F0813081F0A0C0833038
:1002C00009F44FC0843009F489C099C081E080935B
:1002D000E00160E070E0CB0168DF91C02111A8C0AF
:1002E00082E08093E00192C0C091DD01D091DE01F7
:1002F0006091DB017091DC0180E090E04FD1FE0164
:10030000EE0FFF1FEE0FFF1FEA5FFE4F20813181CE
:1003100042815381A6D0882364F4CC0FDD1FCC0F1B
:10032000DD1FC259DE4F688179818A819B813DDF63
:1003300066C08091040190910501C817D90768F43F
:1003400083E08093E0011092DC011092DB012196A2
:10035000D093DE01C093DD0162C084E08093E001B0
:1003600067C0C091DD01D091DE016091DB01709129
:10037000DC0180E090E012D1FE01EE0FFF1FEE0FD6
:10038000FF1FEA5FFE4F208131814281538169D096
:10039000882364F4CC0FDD1FCC0FDD1FC259DE4F64
:1003A000688179818A819B8100DF29C08091040165
:1003B00090910501C817D90768F482E08093E001A5
:1003C0001092DC011092DB012196D093DE01C093E4
:1003D000DD011CC084E08093E0012AC0222341F1AA
:1003E00081E08093E00160E070E0CB01DEDE1092FE
:1003F000DE011092DD011092DC011092DB01809190
:10040000E001823019F0833051F012C08091DB019D
:100410009091DC0101969093DC018093DB01809147
:10042000DB019091DC0101969093DC018093DB016C
:10043000DF91CF9108958FEF84B915B817B888B9B7
:100440001FDF42DE62E070E080E090E09DDE10920F
:10045000E00121DF8091DA018823E1F31092DA01D3
:10046000F8CFD9D008F481E008950CD00FC107D19E
:1004700040F0FED030F021F45F3F19F0F0C0511190
:1004800039C1F3C014D198F39923C9F35523B1F3BB
:10049000951B550BBB27AA2762177307840738F0F3
:1004A0009F5F5F4F220F331F441FAA1FA9F333D052
:1004B0000E2E3AF0E0E830D091505040E695001C06
:1004C000CAF729D0FE2F27D0660F771F881FBB1FC2
:1004D000261737074807AB07B0E809F0BB0B802D9C
:1004E000BF01FF2793585F4F2AF09E3F510568F0E8
:1004F000B6C000C15F3FECF3983EDCF3869577957C
:100500006795B795F7959F5FC9F7880F911D9695E9
:10051000879597F90895E1E0660F771F881FBB1F45
:10052000621773078407BA0720F0621B730B840BF2
:10053000BA0BEE1F88F7E095089504D06894B111C6
:10054000D9C00895BCD088F09F5790F0B92F992753
:10055000B751A0F0D1F0660F771F881F991F1AF0CE
:10056000BA95C9F712C0B13081F0C3D0B1E0089597
:10057000C0C0672F782F8827B85F39F0B93FCCF318
:10058000869577956795B395D9F73EF490958095C4
:10059000709561957F4F8F4F9F4F0895E89409C0E4
:1005A00097FB3EF490958095709561957F4F8F4FA6
:1005B0009F4F9923A9F0F92F96E9BB279395F695BC
:1005C000879577956795B795F111F8CFFAF4BB0F3A
:1005D00011F460FF1BC06F5F7F4F8F4F9F4F16C09E
:1005E000882311F096E911C0772321F09EE8872F28
:1005F000762F05C0662371F096E8862F70E060E0E4
:100600002AF09A95660F771F881FDAF7880F96955C
:10061000879597F90895990F0008550FAA0BE0E800
:10062000FEEF16161706E807F907C0F012161306B4
:10063000E407F50798F0621B730B840B950B39F4F4
:100640000A2661F0232B242B252B21F408950A265A
:1006500009F4A140A6958FEF811D811D089597F99A
:100660009F6780E870E060E008959FEF80EC089558
:1006700000240A9416161706180609060895002481
:100680000A9412161306140605060895092E0394FB
:10069000000C11F4882352F0BB0F40F4BF2B11F46F
:1006A00060FF04C06F5F7F4F8F4F9F4F089557FDCE
:1006B0009058440F551F59F05F3F71F04795880FD0
:1006C00097FB991F61F09F3F79F087950895121667
:1006D00013061406551FF2CF4695F1DF08C0161613
:1006E00017061806991FF1CF8695710561050894C4
:1006F0000895E894BB2766277727CB0197F90895DB
:100700008ADF08F48FEF08950BD0C0CFB1DF28F057
:10071000B6DF18F0952309F0A2CFA7CF1124EACFB6
:10072000C6DFA0F3959FD1F3950F50E0551F629F50
:10073000F001729FBB27F00DB11D639FAA27F00D3A
:10074000B11DAA1F649F6627B00DA11D661F829F61
:100750002227B00DA11D621F739FB00DA11D621F46
:10076000839FA00D611D221F749F3327A00D611D63
:10077000231F849F600D211D822F762F6A2F112445
:100780009F5750408AF0E1F088234AF0EE0FFF1F98
:10079000BB1F661F771F881F91505040A9F79E3FCF
:1007A000510570F05CCFA6CF5F3FECF3983EDCF3D1
:1007B000869577956795B795F795E7959F5FC1F70C
:1007C000FE2B880F911D9695879597F90895F894BB
:0207D000FFCF59
:1007D20001000000190052385E44000096440000F7
:1007E20002430000AA4200009C4200007041000047
:1007F20002430000E6420000B4420000AF440000A1
:10080200704100007043000070410000E14300604D
:1008120006450000C8420000C4420000B842000081
:10082200704100002F44000070410000BE420000F1
:10083200BA420000AE420000504100002F440000C6
:10084200C4431FD512447B14E9430000DC4300007B
:10085200C443000000007B14E943000000000000D4
:10086200DC430000C443000000007BD4924300003C
:1008720000000000C4431FD51244719D2E4400D0D5
:1008820024441FD50244000000001FD5124400007A
:100892000000719DAE43A4D0A443A4D082437BD474
:0208A20092437F
:00000001FF
