:100000000C942A000C9434000C9434000C943400AA
:100010000C9434000C9434000C9434000C94340090
:100020000C9434000C9434000C9434000C94340080
:100030000C9434000C9434000C9434000C94340070
:100040000C9434000C9434000C9434000C94340060
:100050000C94340011241FBECFE5D8E0DEBFCDBF25
:100060000E9436000C9446000C9400001ABA19BA8B
:1000700014BA13BA8FEF87BB18BA91E089B38130F5
:10008000E9F783B38111FACF98BBF8CFF894FFCF8B
:00000001FF
