S01B00006B687573733030315F6C6162325F70617274352E737265633F
S11300000C942A000C9434000C9434000C943400A6
S11300100C9434000C9434000C9434000C9434008C
S11300200C9434000C9434000C9434000C9434007C
S11300300C9434000C9434000C9434000C9434006C
S11300400C9434000C9434000C9434000C9434005C
S11300500C94340011241FBECFE5D8E0DEBFCDBF21
S11300600E9436000C9457000C94000011BA8FEFD4
S113007082BB8EEF87BB18BA52E074E060E080B3B5
S113008090E0880F991F46B3242F217030E0820F2F
S1130090931F8634910530F406978034910520F03F
S11300A0862F03C0852F01C0872F88BBE8CFF89423
S10500B0FFCF7C
S9030000FC
