:100000000C942A000C9447000C9447000C94470071
:100010000C9447000C9447000C9447000C94470044
:100020000C9447000C9447000C9447000C94470034
:100030000C9447000C9447000C9447000C94470024
:100040000C9447000C9447000C9447000C94470014
:100050000C94470011241FBECFE5D8E0DEBFCDBF12
:1000600010E0A0E6B0E0EAECF1E002C005900D92ED
:10007000A236B107D9F720E0A2E6B0E001C01D9298
:10008000A736B207E1F70E94DD000C94E3000C9460
:100090000000809166008230F1F028F4882351F04E
:1000A000813061F07DC0833009F446C0843009F4AA
:1000B0005DC076C081E08093660075C089B38330EF
:1000C00021F082E08093660074C083E089BB81E008
:1000D0008093660068C089B3882309F46AC089B335
:1000E000833021F481E0809366005DC089B3813064
:1000F00079F42091620030916300809160009091CA
:1001000061002817390720F484E080936600089581
:1001100089B3823009F04DC02091620030916300B4
:1001200080916400909165008217930708F041C0A8
:1001300083E080936600089589B381110DC082E049
:100140008093660080916200909163000197909384
:100150006300809362002DC089B3823069F189B356
:10016000833051F581E0809366001DC089B3811111
:100170000DC082E0809366008091620090916300E0
:100180000196909363008093620013C089B381301D
:1001900099F089B3833081F481E08093660003C0D5
:1001A00081E080936600109263001092620015BA9D
:1001B00008958091620085BB089515BA109266007B
:0A01C0000E944900FDCFF894FFCF24
:0201CA0009002A
:00000001FF
