S01B00006B687573733030315F6C6162325F70617274322E7372656342
S11300000C942A000C9434000C9434000C943400A6
S11300100C9434000C9434000C9434000C9434008C
S11300200C9434000C9434000C9434000C9434007C
S11300300C9434000C9434000C9434000C9434006C
S11300400C9434000C9434000C9434000C9434005C
S11300500C94340011241FBECFE5D8E0DEBFCDBF21
S11300600E9436000C94A8000C9400001ABA8FEF7A
S11300708BBB84BB15BA80E099B329B32F7030E0F1
S11300802D3031050CF0816029B32F7030E02D3014
S113009031050CF48E7F29B32F7030E02A303105FE
S11300A00CF0826029B32F7030E02A3031050CF453
S11300B08D7F29B32F7030E0273031050CF0846038
S11300C029B32F7030E0273031050CF48B7F29B32E
S11300D02F7030E0243031050CF0806129B32F708B
S11300E030E0243031050CF48F7E29B32F7030E0DA
S11300F0253031050CF0886029B32F7030E02530AD
S113010031050CF4877F99B39F7009F0806299B32D
S11301109F7009F48F7D29B32F7030E025303105AD
S11301200CF4806429B32F7030E0253031050CF0D5
S11301308F7BCC9B04C0CD9B02C099B38068CC9BC1
S113014005C0CD9B03C099B385BB96CF8F77FCCFF9
S1070150F894FFCF4D
S9030000FC
