S01D00005B6B687573733030315D5F6C6162315F70617274332E7372656388
S11300000C942A000C9434000C9434000C943400A6
S11300100C9434000C9434000C9434000C9434008C
S11300200C9434000C9434000C9434000C9434007C
S11300300C9434000C9434000C9434000C9434006C
S11300400C9434000C9434000C9434000C9434005C
S11300500C94340011241FBECFE5D8E0DEBFCDBF21
S11300600E9436000C9454000C9400001ABA1BBA77
S11300708FEF84BB15BA20E030E044E089B390E010
S1130080022E02C0959587950A94E2F780FD4150AF
S11300902F5F3F4F2430310589F745BB411101C023
S10F00A0AF9A80E090E00895F894FFCF40
S9030000FC
