S01B00006B687573733030315F6C6162315F70617274342E7372656341
S11300000C942A000C9434000C9434000C943400A6
S11300100C9434000C9434000C9434000C9434008C
S11300200C9434000C9434000C9434000C9434007C
S11300300C9434000C9434000C9434000C9434006C
S11300400C9434000C9434000C9434000C9434005C
S11300500C94340011241FBECFE5D8E0DEBFCDBF21
S11300600E9436000C9455000C9400001ABA8FEFCD
S11300708BBB17BA88BB14BA85BB81BB12BA39B320
S113008086B323B390E0830F911D820F911D29B392
S113009033B3231B382F3C7F32BB8D38910508F0D6
S11100A0909A213560F3919AEACFF894FFCF3D
S9030000FC
