S01B00006B687573733030315F6C6162395F70617274332E737265633A
S113000045C0000060C000005EC000005CC000008D
S11300105AC0000058C0000056C0000054C0000080
S113002052C0000050C000004EC000004CC0000090
S11300304AC000006DC0000046C0000044C000007B
S113004042C0000040C000003EC000003CC00000B0
S11300503AC0000038C0000036C0000034C00000C0
S113006032C0000030C000002EC000002CC00000D0
S11300702AC0000028C0000026C0000024C00000E0
S113008022C0000020C000001EC0000011241FBEBA
S1130090CFEFD0E4DEBFCDBF11E0A0E0B1E0E8E8EF
S11300A0F5E000E00BBF02C007900D92A630B10747
S11300B0D9F721E0A6E0B1E001C01D92A331B20757
S11300C0E1F736D25FC29CCF8BE0809381008DE74D
S11300D090E0909389008093880082E080936F0081
S11300E0109285001092840080910001909101018A
S11300F0A0910201B091030180930601909307013E
S1130100A0930801B09309018FB780688FBF089549
S11301101F920F920FB60F9211248F939F93AF9358
S1130120BF938091060190910701A0910801B091BD
S113013009010197A109B109809306019093070170
S1130140A0930801B0930901892B8A2B8B2B99F476
S113015081E080930A018091000190910101A091B6
S11301600201B09103018093060190930701A093CB
S11301700801B0930901BF91AF919F918F910F90A6
S11301800FBE0F901F9018956093000170930101AA
S11301908093020190930301609306017093070119
S11301A08093080190930901089586B191E0282F66
S11301B0217080FD90E090930C0186B1809582704F
S11301C080930B0190911001923011F128F499233E
S11301D049F0913059F0B0C09330D9F1943009F41A
S11301E088C0AAC081E080931001B5C0222331F0F9
S11301F08111B9C082E080931001B1C0882309F451
S1130200AAC010920E0110920D0110920F01A3C00A
S1130210222321F0882309F4A2C0A9C0882351F025
S113022081E08093100110920E0110920D01109242
S11302300F0191C080910F0190E020910401309151
S113024005018217930708F08AC083E080931001A8
S11302500895222389F081118EC082E080931001D9
S113026080910F01893018F48F5F80930F011092F1
S11302700E0110920D0173C0211184C081112FC091
S113028040910D0150910E014F5F5F4F50930E014D
S113029040930D019A01ADECBCEC65D19695879520
S11302A0969587959C01220F331F220F331F820FCF
S11302B0931F4817590739F480910F01893018F4B6
S11302C08F5F80930F014F30510509F05BC084E0CC
S11302D08093100110920E0110920D01089581E097
S11302E08093100110920E0110920D0110920F01D3
S11302F032C0222331F0811142C082E08093100188
S11303002EC021113FC0811113C080910D01909125
S11303100E01019690930E0180930D0180FD32C071
S113032080910F01893070F58F5F80930F010895DC
S113033081E0809310010FC081E08093100110923E
S11303400E0110920D0110920F0105C0913019F0A9
S11303509230C1F404C080910F018BB9089580914B
S11303600F018BB90895222309F44BCFF4CF222334
S113037009F456CFF4CF222309F4B1CFE7CF2223D7
S1130380B9F2E4CF089586B191E0282F217080FD61
S113039090E090930C0186B18095827080930B015C
S11303A0909111019230C9F028F4992349F09130C9
S11303B059F0A0C0933039F1943009F474C09AC054
S11303C081E0809311010895222309F4A1C08111D1
S11303D09FC082E0809311010895222319F08111B6
S11303E093C00895882309F493C081E08093110198
S11303F010920E0110920D0110920F01089583E0E6
S1130400809311010895222309F440C081110FC083
S113041082E08093110180910F01882319F08150AB
S113042080930F0110920E0110920D0108954091D6
S11304300D0150910E014F5F5F4F50930E01409399
S11304400D019A01ADECBCEC8ED0969587959695EE
S113045087959C01220F331F220F331F820F931F96
S11304604817590739F480910F01882319F08150F6
S113047080930F014F30510509F04AC084E0809306
S1130480110110920E0110920D010895882309F4B0
S11304903FC081E08093110110920E0110920D0172
S11304A010920F0108952223C9F0811104C082E043
S11304B080931101089580910D0190910E01019690
S11304C090930E0180930D0180FD22C080910F0155
S11304D08823F1F0815080930F0108958823C1F09F
S11304E081E08093110110920E0110920D0110927F
S11304F00F01089581E08093110110920E01109272
S11305000D0110920F010895222309F46ECF77CFC5
S1130510089580911201882319F0813029F00895FB
S113052081E080931201089580910F0185B90895A7
S11305308FEF84B915B817B888B968EC70E080E01B
S113054090E022DEC1DD1092100110921101109290
S113055012012BDE18DFDDDF80910A018823E1F32D
S113056010920A01F6CFA29FB001B39FC001A39FCE
S1130570700D811D1124911DB29F700D811D1124D8
S10B0580911D0895F894FFCFCA
S10905880100000009005F
S9030000FC
