S01A00006B687573733030315F6C61625F70617274342E7372656373
S11300000C943B000C944D000C944D000C944D004A
S11300100C944D000C944D000C944D000C944D0028
S11300200C944D000C944D000C944D000C944D0018
S11300300C944D000C944D000C944D000C944D0008
S11300400C944D000C944D000C944D000C944D00F8
S11300500C944D005C0060006A0079008E009F00E3
S1130060AA00B800C600F000F300F600F900FC0096
S1130070FF000201050111241FBECFE5D8E0DEBF59
S1130080CDBF20E0A0E6B0E001C01D92A136B207CA
S1130090E1F70E9408010C9414010C940000E09113
S11300A060008E2F90E08930910508F088C0FC0133
S11300B0E65DFF4F0C940E0181E08093600090C0D8
S11300C089B3843009F08CC0CF998AC082E08093D0
S11300D0600089C089B3811106C0CF9904C083E050
S11300E08093600083C089B3843009F07CC089B3F5
S11300F07AC089B3813031F089B3803819F089B37B
S1130100843021F481E0809360006AC089B3823036
S113011009F06CC084E0809360006BC089B38111E6
S113012008C0CF9906C086E08093600081E088BB58
S11301304AC089B3823009F05CC089B35AC089B31C
S1130140811106C0CF9904C086E08093600057C037
S113015089B352C0CF9B04C081E08093600040C04B
S113016089B3843009F04BC087E0809360004AC0B3
S113017089B3811106C0CF9904C088E080936000E0
S113018044C089B38430F1F589B33CC089B381306C
S113019019F089B3803821F486E0809360002FC081
S11301A089B3823029F481E08093600018BA0BC0CF
S11301B089B3843051F585E0809360001DC081E0EF
S11301C0809360000DC0E09160008E2F90E0FC01F0
S11301D03197E830F105D8F4ED5CFF4F0C940E0133
S11301E018BA15BA089581E085BB089582E085BBED
S11301F0089583E085BB089587E085BB089584E076
S113020085BB089585E085BB089586E085BB089588
S11302101092600018BA0E944F00FDCFEE0FFF1F2E
S10F02200590F491E02D0994F894FFCFB0
S9030000FC
