S01B00006B687573733030315F6C6162325F70617274312E7372656343
S11300000C942A000C9434000C9434000C943400A6
S11300100C9434000C9434000C9434000C9434008C
S11300200C9434000C9434000C9434000C9434007C
S11300300C9434000C9434000C9434000C9434006C
S11300400C9434000C9434000C9434000C9434005C
S11300500C94340011241FBECFE5D8E0DEBFCDBF21
S11300600E9436000C9461000C9400001ABA8FEFC1
S11300708BBB17BA88BB84BB15BA20E030E040E0E4
S113008050E089B3B901772790E0062E02C0959518
S113009087950A94E2F780FF02C04F5F5F4F86B3F3
S11300A090E002C0959587956A95E2F780FF02C0BB
S11300B04F5F5F4F45BB2F5F3F4F2830310509F736
S10900C0DCCFF894FFCF31
S9030000FC
