:100000000C942A000C943C000C943C000C943C0092
:100010000C943C000C943C000C943C000C943C0070
:100020000C943C000C943C000C943C000C943C0060
:100030000C943C000C943C000C943C000C943C0050
:100040000C943C000C943C000C943C000C943C0040
:100050000C943C0011241FBECFE5D8E0DEBFCDBF1D
:1000600020E0A0E6B0E001C01D92A336B207E1F7A0
:100070000E947A000C947F000C9400008091610033
:10008000823081F018F4813031F021C0833089F062
:100090008430B1F01CC089B3813039F582E080939F
:1000A000610019C089B3811116C083E0809361009B
:1000B000089589B38130E9F484E08093610010C031
:1000C00089B381110DC081E0809361000EC081E091
:1000D000809361000AC082E08093600088BB08952D
:1000E00081E08093600088BB089581E08093600088
:1000F00088BB0895109261000E943E00FDCFF894E5
:02010000FFCF2F
:00000001FF
