S01B00006B687573733030315F6C6162365F70617274312E737265633F
S113000045C0000060C000005EC000005CC000008D
S11300105AC0000058C0000056C0000054C0000080
S113002052C0000050C000004EC000004CC0000090
S11300304AC000006DC0000046C0000044C000007B
S113004042C0000040C000003EC000003CC00000B0
S11300503AC0000038C0000036C0000034C00000C0
S113006032C0000030C000002EC000002CC00000D0
S11300702AC0000028C0000026C0000024C00000E0
S113008022C0000020C000001EC0000011241FBEBA
S1130090CFEFD0E4DEBFCDBF11E0A0E0B1E0ECE2F1
S11300A0F3E000E00BBF02C007900D92A830B10747
S11300B0D9F721E0A8E0B1E001C01D92A131B20757
S11300C0E1F719D131C19CCF8BE0809381008DE79A
S11300D090E0909389008093880082E080936F0081
S11300E0109285001092840080910001909101018A
S11300F0A0910201B091030180930801909309013A
S1130100A0930A01B0930B018FB780688FBF089545
S11301101F920F920FB60F9211248F939F93AF9358
S1130120BF938091080190910901A0910A01B091B7
S11301300B010197A109B10980930801909309016A
S1130140A0930A01B0930B01892B8A2B8B2B99F472
S113015081E080930C018091000190910101A091B4
S11301600201B09103018093080190930901A093C7
S11301700A01B0930B01BF91AF919F918F910F90A2
S11301800FBE0F901F9018956093000170930101AA
S11301908093020190930301609308017093090115
S11301A080930A0190930B01089586B191E0382F52
S11301B0317080FD90E090930F0186B1809582703C
S11301C080930E0196B19095947090930D012091B7
S11301D01001223031F128F4222351F0213061F052
S11301E07BC0243091F138F1253009F44DC074C03E
S11301F081E08093100178C0311104C082E08093C3
S1130200100174C0882331F091116EC084E0809392
S113021010010895992309F467C085E080931001C3
S11302200895332321F081E0809310015DC083E0C1
S1130230809310015EC0332321F081E0809310018C
S113024053C082E08093100151C0811153C09111B9
S113025051C081E0809310018091040190910501C7
S1130260A0910601B0910701BC01CD016F5F7F4FE2
S11302708F4F9F4F60930401709305018093060193
S11302809093070181DF28C0811134C0911132C0DD
S113029081E0809310018091040190910501A09167
S11302A00601B091070182309105A105B10558F00E
S11302B00197A109B1098093040190930501A093CA
S11302C00601B093070160910401709105018091CA
S11302D006019091070158DF80911001823031F0BE
S11302E0833039F0813031F415B8089580E185B94F
S11302F0089515B808958FEF84B915B817B888B95B
S113030060910401709105018091060190910701AB
S11303103BDFDADE1092100148DF80910C01882364
S10F0320E1F310920C01F8CFF894FFCF29
S10B032C0100000002000000C2
S9030000FC
