:1000000045C0000060C000005EC000005CC0000091
:100010005AC0000058C0000056C0000054C0000084
:1000200052C0000050C000004EC000004CC0000094
:100030004AC000006DC0000046C0000044C000007F
:1000400042C0000040C000003EC000003CC00000B4
:100050003AC0000038C0000036C0000034C00000C4
:1000600032C0000030C000002EC000002CC00000D4
:100070002AC0000028C0000026C0000024C00000E4
:1000800022C0000020C000001EC0000011241FBEBE
:10009000CFEFD0E4DEBFCDBF11E0A0E0B1E0ECE9EE
:1000A000F2E000E00BBF02C007900D92A430B10750
:1000B000D9F721E0A4E0B1E001C01D92AE30B20753
:1000C000E1F7D0D0E9C09CCF8BE0809381008DE731
:1000D00090E0909389008093880082E080936F0085
:1000E000109285001092840080910001909101018E
:1000F000A0910201B0910301809306019093070142
:10010000A0930801B09309018FB780688FBF08954D
:100110001F920F920FB60F9211248F939F93AF935C
:10012000BF938091060190910701A0910801B091C1
:1001300009010197A109B109809306019093070174
:10014000A0930801B0930901892B8A2B8B2B99F47A
:1001500081E080930A018091000190910101A091BA
:100160000201B09103018093060190930701A093CF
:100170000801B0930901BF91AF919F918F910F90AA
:100180000FBE0F901F9018956093000170930101AE
:10019000809302019093030160930601709307011D
:1001A0008093080190930901089580910B0181309B
:1001B00061F018F0823029F00CC082E080930B01CE
:1001C0000CC081E080930B010BC082E080930B0197
:1001D00004C0813029F0823031F410920501089575
:1001E00081E080930501089580910C01813051F0E8
:1001F00028F0823059F0833069F010C081E080939C
:100200000C0112C082E080930C0112C083E0809345
:100210000C0112C081E080930C0106C0823041F0D5
:10022000833051F0813059F482E0809304010895C5
:1002300084E080930401089588E080930401089588
:1002400080910D01882319F0813029F0089581E013
:1002500080930D0108959091050180910401892BEF
:1002600085B908958FEF84B915B868EE73E080E022
:1002700090E08ADF29DF10920B0110920C0181E0DF
:1002800080930D0192DFB0DFDBDF80910A018823CC
:0C029000E1F310920A01F6CFF894FFCFC2
:04029C00010000005D
:00000001FF
